{
  "_format": "hh-sol-artifact-1",
  "contractName": "WavePortal",
  "sourceName": "contracts/WavePortal.sol",
  "abi": [
    {
      "inputs": [],
      "stateMutability": "payable",
      "type": "constructor"
    },
    {
      "anonymous": false,
      "inputs": [
        {
          "indexed": true,
          "internalType": "address",
          "name": "from",
          "type": "address"
        },
        {
          "indexed": false,
          "internalType": "uint256",
          "name": "timestamp",
          "type": "uint256"
        },
        {
          "indexed": false,
          "internalType": "string",
          "name": "message",
          "type": "string"
        }
      ],
      "name": "NewMessage",
      "type": "event"
    },
    {
      "inputs": [],
      "name": "getAllMessages",
      "outputs": [
        {
          "components": [
            {
              "internalType": "address",
              "name": "user",
              "type": "address"
            },
            {
              "internalType": "string",
              "name": "message",
              "type": "string"
            },
            {
              "internalType": "uint256",
              "name": "timestamp",
              "type": "uint256"
            }
          ],
          "internalType": "struct WavePortal.Message[]",
          "name": "",
          "type": "tuple[]"
        }
      ],
      "stateMutability": "view",
      "type": "function"
    },
    {
      "inputs": [
        {
          "internalType": "address",
          "name": "user",
          "type": "address"
        }
      ],
      "name": "getNumberOfWavesOfUser",
      "outputs": [
        {
          "internalType": "uint256",
          "name": "",
          "type": "uint256"
        }
      ],
      "stateMutability": "view",
      "type": "function"
    },
    {
      "inputs": [],
      "name": "getTotalWaves",
      "outputs": [
        {
          "internalType": "uint256",
          "name": "",
          "type": "uint256"
        }
      ],
      "stateMutability": "view",
      "type": "function"
    },
    {
      "inputs": [
        {
          "internalType": "address",
          "name": "",
          "type": "address"
        }
      ],
      "name": "lastWavedAt",
      "outputs": [
        {
          "internalType": "uint256",
          "name": "",
          "type": "uint256"
        }
      ],
      "stateMutability": "view",
      "type": "function"
    },
    {
      "inputs": [
        {
          "internalType": "string",
          "name": "_message",
          "type": "string"
        }
      ],
      "name": "message",
      "outputs": [],
      "stateMutability": "nonpayable",
      "type": "function"
    },
    {
      "inputs": [
        {
          "internalType": "uint256",
          "name": "",
          "type": "uint256"
        }
      ],
      "name": "messages",
      "outputs": [
        {
          "internalType": "address",
          "name": "user",
          "type": "address"
        },
        {
          "internalType": "string",
          "name": "message",
          "type": "string"
        },
        {
          "internalType": "uint256",
          "name": "timestamp",
          "type": "uint256"
        }
      ],
      "stateMutability": "view",
      "type": "function"
    },
    {
      "inputs": [
        {
          "internalType": "address",
          "name": "",
          "type": "address"
        }
      ],
      "name": "numberOfWavesPerUser",
      "outputs": [
        {
          "internalType": "uint256",
          "name": "",
          "type": "uint256"
        }
      ],
      "stateMutability": "view",
      "type": "function"
    },
    {
      "inputs": [],
      "name": "totalWaves",
      "outputs": [
        {
          "internalType": "uint256",
          "name": "",
          "type": "uint256"
        }
      ],
      "stateMutability": "view",
      "type": "function"
    },
    {
      "inputs": [],
      "name": "wave",
      "outputs": [],
      "stateMutability": "nonpayable",
      "type": "function"
    }
  ],
  "bytecode": "0x60806040526200003360405180606001604052806034815260200162001b1f603491396200005b60201b620009de1760201c565b6064444262000043919062000160565b6200004f9190620001ca565b600181905550620002c0565b620000fb816040516024016200007291906200029c565b6040516020818303038152906040527f41304fac000000000000000000000000000000000000000000000000000000007bffffffffffffffffffffffffffffffffffffffffffffffffffffffff19166020820180517bffffffffffffffffffffffffffffffffffffffffffffffffffffffff8381831617835250505050620000fe60201b60201c565b50565b60008151905060006a636f6e736f6c652e6c6f679050602083016000808483855afa5050505050565b6000819050919050565b7f4e487b7100000000000000000000000000000000000000000000000000000000600052601160045260246000fd5b60006200016d8262000127565b91506200017a8362000127565b925082820190508082111562000195576200019462000131565b5b92915050565b7f4e487b7100000000000000000000000000000000000000000000000000000000600052601260045260246000fd5b6000620001d78262000127565b9150620001e48362000127565b925082620001f757620001f66200019b565b5b828206905092915050565b600081519050919050565b600082825260208201905092915050565b60005b838110156200023e57808201518184015260208101905062000221565b60008484015250505050565b6000601f19601f8301169050919050565b6000620002688262000202565b6200027481856200020d565b9350620002868185602086016200021e565b62000291816200024a565b840191505092915050565b60006020820190508181036000830152620002b881846200025b565b905092915050565b61184f80620002d06000396000f3fe608060405234801561001057600080fd5b50600436106100935760003560e01c80636fe15b44116100665780636fe15b44146101225780638e24e1f51461012c5780639a2cdc081461015c578063a42a46631461017a578063ef36cd02146101aa57610093565b806305c766d1146100985780630d80fefd146100b4578063291bcab3146100e657806353f5e38014610104575b600080fd5b6100b260048036038101906100ad9190610dce565b6101da565b005b6100ce60048036038101906100c99190610e4d565b610331565b6040516100dd93929190610f49565b60405180910390f35b6100ee610413565b6040516100fb9190610f87565b60405180910390f35b61010c610419565b604051610119919061111c565b60405180910390f35b61012a61056a565b005b6101466004803603810190610141919061116a565b61089c565b6040516101539190610f87565b60405180910390f35b6101646108b4565b6040516101719190610f87565b60405180910390f35b610194600480360381019061018f919061116a565b6108ff565b6040516101a19190610f87565b60405180910390f35b6101c460048036038101906101bf919061116a565b610917565b6040516101d19190610f87565b60405180910390f35b600460405180606001604052803373ffffffffffffffffffffffffffffffffffffffff16815260200183815260200142815250908060018154018082558091505060019003906000526020600020906003020160009091909190915060008201518160000160006101000a81548173ffffffffffffffffffffffffffffffffffffffff021916908373ffffffffffffffffffffffffffffffffffffffff160217905550602082015181600101908161029291906113a3565b506040820151816002015550506102de6040518060400160405280601781526020017f5468652075736572206d6573736167652069732025732000000000000000000081525082610a77565b3373ffffffffffffffffffffffffffffffffffffffff167f0ff94fec3112de81726d79117e091c7c9d47da8a38c73e8cec7ee350a61898a64283604051610326929190611475565b60405180910390a250565b6004818154811061034157600080fd5b90600052602060002090600302016000915090508060000160009054906101000a900473ffffffffffffffffffffffffffffffffffffffff169080600101805461038a906111c6565b80601f01602080910402602001604051908101604052809291908181526020018280546103b6906111c6565b80156104035780601f106103d857610100808354040283529160200191610403565b820191906000526020600020905b8154815290600101906020018083116103e657829003601f168201915b5050505050908060020154905083565b60005481565b60606004805480602002602001604051908101604052809291908181526020016000905b8282101561056157838290600052602060002090600302016040518060600160405290816000820160009054906101000a900473ffffffffffffffffffffffffffffffffffffffff1673ffffffffffffffffffffffffffffffffffffffff1673ffffffffffffffffffffffffffffffffffffffff1681526020016001820180546104c6906111c6565b80601f01602080910402602001604051908101604052809291908181526020018280546104f2906111c6565b801561053f5780601f106105145761010080835404028352916020019161053f565b820191906000526020600020905b81548152906001019060200180831161052257829003601f168201915b505050505081526020016002820154815250508152602001906001019061043d565b50505050905090565b42610384600360003373ffffffffffffffffffffffffffffffffffffffff1673ffffffffffffffffffffffffffffffffffffffff168152602001908152602001600020546105b891906114d4565b106105f8576040517f08c379a00000000000000000000000000000000000000000000000000000000081526004016105ef90611554565b60405180910390fd5b42600360003373ffffffffffffffffffffffffffffffffffffffff1673ffffffffffffffffffffffffffffffffffffffff1681526020019081526020016000208190555060008081548092919061064e90611574565b9190505550600260003373ffffffffffffffffffffffffffffffffffffffff1673ffffffffffffffffffffffffffffffffffffffff16815260200190815260200160002060008154809291906106a390611574565b91905055506106e76040518060400160405280600c81526020017f257320686173207761766564000000000000000000000000000000000000000081525033610b13565b606460015442446106f891906114d4565b61070291906114d4565b61070c91906115eb565b6001819055506107536040518060400160405280601681526020017f52616e646f6d20232067656e6572617465643a20256400000000000000000000815250600154610baf565b6032600154101561089a5761079d6040518060400160405280600781526020017f257320776f6e210000000000000000000000000000000000000000000000000081525033610b13565b6000655af3107a40009050478111156107eb576040517f08c379a00000000000000000000000000000000000000000000000000000000081526004016107e290611668565b60405180910390fd5b60003373ffffffffffffffffffffffffffffffffffffffff1682604051610811906116b9565b60006040518083038185875af1925050503d806000811461084e576040519150601f19603f3d011682016040523d82523d6000602084013e610853565b606091505b5050905080610897576040517f08c379a000000000000000000000000000000000000000000000000000000000815260040161088e90611740565b60405180910390fd5b50505b565b60026020528060005260406000206000915090505481565b60006108f76040518060400160405280601681526020017f5765206861766520256420746f74616c20776176657300000000000000000000815250600054610baf565b600054905090565b60036020528060005260406000206000915090505481565b60006109976040518060400160405280601c81526020017f5468697320757365722068617320256420746f74616c20776176657300000000815250600260008573ffffffffffffffffffffffffffffffffffffffff1673ffffffffffffffffffffffffffffffffffffffff16815260200190815260200160002054610baf565b600260008373ffffffffffffffffffffffffffffffffffffffff1673ffffffffffffffffffffffffffffffffffffffff168152602001908152602001600020549050919050565b610a74816040516024016109f29190611760565b6040516020818303038152906040527f41304fac000000000000000000000000000000000000000000000000000000007bffffffffffffffffffffffffffffffffffffffffffffffffffffffff19166020820180517bffffffffffffffffffffffffffffffffffffffffffffffffffffffff8381831617835250505050610c4b565b50565b610b0f8282604051602401610a8d929190611782565b6040516020818303038152906040527f4b5c4277000000000000000000000000000000000000000000000000000000007bffffffffffffffffffffffffffffffffffffffffffffffffffffffff19166020820180517bffffffffffffffffffffffffffffffffffffffffffffffffffffffff8381831617835250505050610c4b565b5050565b610bab8282604051602401610b299291906117b9565b6040516020818303038152906040527f319af333000000000000000000000000000000000000000000000000000000007bffffffffffffffffffffffffffffffffffffffffffffffffffffffff19166020820180517bffffffffffffffffffffffffffffffffffffffffffffffffffffffff8381831617835250505050610c4b565b5050565b610c478282604051602401610bc59291906117e9565b6040516020818303038152906040527fb60e72cc000000000000000000000000000000000000000000000000000000007bffffffffffffffffffffffffffffffffffffffffffffffffffffffff19166020820180517bffffffffffffffffffffffffffffffffffffffffffffffffffffffff8381831617835250505050610c4b565b5050565b60008151905060006a636f6e736f6c652e6c6f679050602083016000808483855afa5050505050565b6000604051905090565b600080fd5b600080fd5b600080fd5b600080fd5b6000601f19601f8301169050919050565b7f4e487b7100000000000000000000000000000000000000000000000000000000600052604160045260246000fd5b610cdb82610c92565b810181811067ffffffffffffffff82111715610cfa57610cf9610ca3565b5b80604052505050565b6000610d0d610c74565b9050610d198282610cd2565b919050565b600067ffffffffffffffff821115610d3957610d38610ca3565b5b610d4282610c92565b9050602081019050919050565b82818337600083830152505050565b6000610d71610d6c84610d1e565b610d03565b905082815260208101848484011115610d8d57610d8c610c8d565b5b610d98848285610d4f565b509392505050565b600082601f830112610db557610db4610c88565b5b8135610dc5848260208601610d5e565b91505092915050565b600060208284031215610de457610de3610c7e565b5b600082013567ffffffffffffffff811115610e0257610e01610c83565b5b610e0e84828501610da0565b91505092915050565b6000819050919050565b610e2a81610e17565b8114610e3557600080fd5b50565b600081359050610e4781610e21565b92915050565b600060208284031215610e6357610e62610c7e565b5b6000610e7184828501610e38565b91505092915050565b600073ffffffffffffffffffffffffffffffffffffffff82169050919050565b6000610ea582610e7a565b9050919050565b610eb581610e9a565b82525050565b600081519050919050565b600082825260208201905092915050565b60005b83811015610ef5578082015181840152602081019050610eda565b60008484015250505050565b6000610f0c82610ebb565b610f168185610ec6565b9350610f26818560208601610ed7565b610f2f81610c92565b840191505092915050565b610f4381610e17565b82525050565b6000606082019050610f5e6000830186610eac565b8181036020830152610f708185610f01565b9050610f7f6040830184610f3a565b949350505050565b6000602082019050610f9c6000830184610f3a565b92915050565b600081519050919050565b600082825260208201905092915050565b6000819050602082019050919050565b610fd781610e9a565b82525050565b600082825260208201905092915050565b6000610ff982610ebb565b6110038185610fdd565b9350611013818560208601610ed7565b61101c81610c92565b840191505092915050565b61103081610e17565b82525050565b600060608301600083015161104e6000860182610fce565b50602083015184820360208601526110668282610fee565b915050604083015161107b6040860182611027565b508091505092915050565b60006110928383611036565b905092915050565b6000602082019050919050565b60006110b282610fa2565b6110bc8185610fad565b9350836020820285016110ce85610fbe565b8060005b8581101561110a57848403895281516110eb8582611086565b94506110f68361109a565b925060208a019950506001810190506110d2565b50829750879550505050505092915050565b6000602082019050818103600083015261113681846110a7565b905092915050565b61114781610e9a565b811461115257600080fd5b50565b6000813590506111648161113e565b92915050565b6000602082840312156111805761117f610c7e565b5b600061118e84828501611155565b91505092915050565b7f4e487b7100000000000000000000000000000000000000000000000000000000600052602260045260246000fd5b600060028204905060018216806111de57607f821691505b6020821081036111f1576111f0611197565b5b50919050565b60008190508160005260206000209050919050565b60006020601f8301049050919050565b600082821b905092915050565b6000600883026112597fffffffffffffffffffffffffffffffffffffffffffffffffffffffffffffffff8261121c565b611263868361121c565b95508019841693508086168417925050509392505050565b6000819050919050565b60006112a061129b61129684610e17565b61127b565b610e17565b9050919050565b6000819050919050565b6112ba83611285565b6112ce6112c6826112a7565b848454611229565b825550505050565b600090565b6112e36112d6565b6112ee8184846112b1565b505050565b5b81811015611312576113076000826112db565b6001810190506112f4565b5050565b601f82111561135757611328816111f7565b6113318461120c565b81016020851015611340578190505b61135461134c8561120c565b8301826112f3565b50505b505050565b600082821c905092915050565b600061137a6000198460080261135c565b1980831691505092915050565b60006113938383611369565b9150826002028217905092915050565b6113ac82610ebb565b67ffffffffffffffff8111156113c5576113c4610ca3565b5b6113cf82546111c6565b6113da828285611316565b600060209050601f83116001811461140d57600084156113fb578287015190505b6114058582611387565b86555061146d565b601f19841661141b866111f7565b60005b828110156114435784890151825560018201915060208501945060208101905061141e565b86831015611460578489015161145c601f891682611369565b8355505b6001600288020188555050505b505050505050565b600060408201905061148a6000830185610f3a565b818103602083015261149c8184610f01565b90509392505050565b7f4e487b7100000000000000000000000000000000000000000000000000000000600052601160045260246000fd5b60006114df82610e17565b91506114ea83610e17565b9250828201905080821115611502576115016114a5565b5b92915050565b7f77616974203135206d696e000000000000000000000000000000000000000000600082015250565b600061153e600b83610ec6565b915061154982611508565b602082019050919050565b6000602082019050818103600083015261156d81611531565b9050919050565b600061157f82610e17565b91507fffffffffffffffffffffffffffffffffffffffffffffffffffffffffffffffff82036115b1576115b06114a5565b5b600182019050919050565b7f4e487b7100000000000000000000000000000000000000000000000000000000600052601260045260246000fd5b60006115f682610e17565b915061160183610e17565b925082611611576116106115bc565b5b828206905092915050565b7f436f6e74726163742063616e20737570706f727420796f750000000000000000600082015250565b6000611652601883610ec6565b915061165d8261161c565b602082019050919050565b6000602082019050818103600083015261168181611645565b9050919050565b600081905092915050565b50565b60006116a3600083611688565b91506116ae82611693565b600082019050919050565b60006116c482611696565b9150819050919050565b7f4661696c656420746f207769746864726177206d6f6e65792066726f6d20636f60008201527f6e74726163742e00000000000000000000000000000000000000000000000000602082015250565b600061172a602783610ec6565b9150611735826116ce565b604082019050919050565b600060208201905081810360008301526117598161171d565b9050919050565b6000602082019050818103600083015261177a8184610f01565b905092915050565b6000604082019050818103600083015261179c8185610f01565b905081810360208301526117b08184610f01565b90509392505050565b600060408201905081810360008301526117d38185610f01565b90506117e26020830184610eac565b9392505050565b600060408201905081810360008301526118038185610f01565b90506118126020830184610f3a565b939250505056fea264697066735822122033aec627bbc0c6701603293cf32064afcfd52fe49a1f74150608483f108d39a564736f6c6343000811003348656c6c6f20696d206120636f6e736f6c656c6f6720696e206120736d61727420636f6e74726163742077617665506f7274616c",
  "linkReferences": {},
  "deployedLinkReferences": {}
}