{
  "_format": "hh-sol-artifact-1",
  "contractName": "WavePortal",
  "sourceName": "contracts/WavePortal.sol",
  "abi": [
    {
      "inputs": [],
      "stateMutability": "nonpayable",
      "type": "constructor"
    },
    {
      "anonymous": false,
      "inputs": [
        {
          "indexed": true,
          "internalType": "address",
          "name": "from",
          "type": "address"
        },
        {
          "indexed": false,
          "internalType": "uint256",
          "name": "timestamp",
          "type": "uint256"
        },
        {
          "indexed": false,
          "internalType": "string",
          "name": "message",
          "type": "string"
        }
      ],
      "name": "NewMessage",
      "type": "event"
    },
    {
      "inputs": [],
      "name": "getAllMessages",
      "outputs": [
        {
          "components": [
            {
              "internalType": "address",
              "name": "user",
              "type": "address"
            },
            {
              "internalType": "string",
              "name": "message",
              "type": "string"
            },
            {
              "internalType": "uint256",
              "name": "timestamp",
              "type": "uint256"
            }
          ],
          "internalType": "struct WavePortal.Message[]",
          "name": "",
          "type": "tuple[]"
        }
      ],
      "stateMutability": "view",
      "type": "function"
    },
    {
      "inputs": [
        {
          "internalType": "address",
          "name": "user",
          "type": "address"
        }
      ],
      "name": "getNumberOfWavesOfUser",
      "outputs": [
        {
          "internalType": "uint256",
          "name": "",
          "type": "uint256"
        }
      ],
      "stateMutability": "view",
      "type": "function"
    },
    {
      "inputs": [],
      "name": "getTotalWaves",
      "outputs": [
        {
          "internalType": "uint256",
          "name": "",
          "type": "uint256"
        }
      ],
      "stateMutability": "view",
      "type": "function"
    },
    {
      "inputs": [
        {
          "internalType": "string",
          "name": "_message",
          "type": "string"
        }
      ],
      "name": "message",
      "outputs": [],
      "stateMutability": "nonpayable",
      "type": "function"
    },
    {
      "inputs": [
        {
          "internalType": "uint256",
          "name": "",
          "type": "uint256"
        }
      ],
      "name": "messages",
      "outputs": [
        {
          "internalType": "address",
          "name": "user",
          "type": "address"
        },
        {
          "internalType": "string",
          "name": "message",
          "type": "string"
        },
        {
          "internalType": "uint256",
          "name": "timestamp",
          "type": "uint256"
        }
      ],
      "stateMutability": "view",
      "type": "function"
    },
    {
      "inputs": [
        {
          "internalType": "address",
          "name": "",
          "type": "address"
        }
      ],
      "name": "numberOfWavesPerUser",
      "outputs": [
        {
          "internalType": "uint256",
          "name": "",
          "type": "uint256"
        }
      ],
      "stateMutability": "view",
      "type": "function"
    },
    {
      "inputs": [],
      "name": "totalWaves",
      "outputs": [
        {
          "internalType": "uint256",
          "name": "",
          "type": "uint256"
        }
      ],
      "stateMutability": "view",
      "type": "function"
    },
    {
      "inputs": [],
      "name": "wave",
      "outputs": [],
      "stateMutability": "nonpayable",
      "type": "function"
    }
  ],
  "bytecode": "0x60806040523480156200001157600080fd5b506200004160405180606001604052806034815260200162001514603491396200004760201b620007061760201c565b620001d1565b620000e7816040516024016200005e9190620001ad565b6040516020818303038152906040527f41304fac000000000000000000000000000000000000000000000000000000007bffffffffffffffffffffffffffffffffffffffffffffffffffffffff19166020820180517bffffffffffffffffffffffffffffffffffffffffffffffffffffffff8381831617835250505050620000ea60201b60201c565b50565b60008151905060006a636f6e736f6c652e6c6f679050602083016000808483855afa5050505050565b600081519050919050565b600082825260208201905092915050565b60005b838110156200014f57808201518184015260208101905062000132565b60008484015250505050565b6000601f19601f8301169050919050565b6000620001798262000113565b6200018581856200011e565b9350620001978185602086016200012f565b620001a2816200015b565b840191505092915050565b60006020820190508181036000830152620001c981846200016c565b905092915050565b61133380620001e16000396000f3fe608060405234801561001057600080fd5b50600436106100885760003560e01c80636fe15b441161005b5780636fe15b44146101175780638e24e1f5146101215780639a2cdc0814610151578063ef36cd021461016f57610088565b806305c766d11461008d5780630d80fefd146100a9578063291bcab3146100db57806353f5e380146100f9575b600080fd5b6100a760048036038101906100a29190610af6565b61019f565b005b6100c360048036038101906100be9190610b75565b6102f6565b6040516100d293929190610c71565b60405180910390f35b6100e36103d8565b6040516100f09190610caf565b60405180910390f35b6101016103de565b60405161010e9190610e44565b60405180910390f35b61011f61052f565b005b61013b60048036038101906101369190610e92565b6105dc565b6040516101489190610caf565b60405180910390f35b6101596105f4565b6040516101669190610caf565b60405180910390f35b61018960048036038101906101849190610e92565b61063f565b6040516101969190610caf565b60405180910390f35b600260405180606001604052803373ffffffffffffffffffffffffffffffffffffffff16815260200183815260200142815250908060018154018082558091505060019003906000526020600020906003020160009091909190915060008201518160000160006101000a81548173ffffffffffffffffffffffffffffffffffffffff021916908373ffffffffffffffffffffffffffffffffffffffff160217905550602082015181600101908161025791906110cb565b506040820151816002015550506102a36040518060400160405280601781526020017f5468652075736572206d657373616765206973202573200000000000000000008152508261079f565b3373ffffffffffffffffffffffffffffffffffffffff167f0ff94fec3112de81726d79117e091c7c9d47da8a38c73e8cec7ee350a61898a642836040516102eb92919061119d565b60405180910390a250565b6002818154811061030657600080fd5b90600052602060002090600302016000915090508060000160009054906101000a900473ffffffffffffffffffffffffffffffffffffffff169080600101805461034f90610eee565b80601f016020809104026020016040519081016040528092919081815260200182805461037b90610eee565b80156103c85780601f1061039d576101008083540402835291602001916103c8565b820191906000526020600020905b8154815290600101906020018083116103ab57829003601f168201915b5050505050908060020154905083565b60005481565b60606002805480602002602001604051908101604052809291908181526020016000905b8282101561052657838290600052602060002090600302016040518060600160405290816000820160009054906101000a900473ffffffffffffffffffffffffffffffffffffffff1673ffffffffffffffffffffffffffffffffffffffff1673ffffffffffffffffffffffffffffffffffffffff16815260200160018201805461048b90610eee565b80601f01602080910402602001604051908101604052809291908181526020018280546104b790610eee565b80156105045780601f106104d957610100808354040283529160200191610504565b820191906000526020600020905b8154815290600101906020018083116104e757829003601f168201915b5050505050815260200160028201548152505081526020019060010190610402565b50505050905090565b600080815480929190610541906111fc565b9190505550600160003373ffffffffffffffffffffffffffffffffffffffff1673ffffffffffffffffffffffffffffffffffffffff1681526020019081526020016000206000815480929190610596906111fc565b91905055506105da6040518060400160405280600c81526020017f25732068617320776176656400000000000000000000000000000000000000008152503361083b565b565b60016020528060005260406000206000915090505481565b60006106376040518060400160405280601681526020017f5765206861766520256420746f74616c207761766573000000000000000000008152506000546108d7565b600054905090565b60006106bf6040518060400160405280601c81526020017f5468697320757365722068617320256420746f74616c20776176657300000000815250600160008573ffffffffffffffffffffffffffffffffffffffff1673ffffffffffffffffffffffffffffffffffffffff168152602001908152602001600020546108d7565b600160008373ffffffffffffffffffffffffffffffffffffffff1673ffffffffffffffffffffffffffffffffffffffff168152602001908152602001600020549050919050565b61079c8160405160240161071a9190611244565b6040516020818303038152906040527f41304fac000000000000000000000000000000000000000000000000000000007bffffffffffffffffffffffffffffffffffffffffffffffffffffffff19166020820180517bffffffffffffffffffffffffffffffffffffffffffffffffffffffff8381831617835250505050610973565b50565b61083782826040516024016107b5929190611266565b6040516020818303038152906040527f4b5c4277000000000000000000000000000000000000000000000000000000007bffffffffffffffffffffffffffffffffffffffffffffffffffffffff19166020820180517bffffffffffffffffffffffffffffffffffffffffffffffffffffffff8381831617835250505050610973565b5050565b6108d3828260405160240161085192919061129d565b6040516020818303038152906040527f319af333000000000000000000000000000000000000000000000000000000007bffffffffffffffffffffffffffffffffffffffffffffffffffffffff19166020820180517bffffffffffffffffffffffffffffffffffffffffffffffffffffffff8381831617835250505050610973565b5050565b61096f82826040516024016108ed9291906112cd565b6040516020818303038152906040527fb60e72cc000000000000000000000000000000000000000000000000000000007bffffffffffffffffffffffffffffffffffffffffffffffffffffffff19166020820180517bffffffffffffffffffffffffffffffffffffffffffffffffffffffff8381831617835250505050610973565b5050565b60008151905060006a636f6e736f6c652e6c6f679050602083016000808483855afa5050505050565b6000604051905090565b600080fd5b600080fd5b600080fd5b600080fd5b6000601f19601f8301169050919050565b7f4e487b7100000000000000000000000000000000000000000000000000000000600052604160045260246000fd5b610a03826109ba565b810181811067ffffffffffffffff82111715610a2257610a216109cb565b5b80604052505050565b6000610a3561099c565b9050610a4182826109fa565b919050565b600067ffffffffffffffff821115610a6157610a606109cb565b5b610a6a826109ba565b9050602081019050919050565b82818337600083830152505050565b6000610a99610a9484610a46565b610a2b565b905082815260208101848484011115610ab557610ab46109b5565b5b610ac0848285610a77565b509392505050565b600082601f830112610add57610adc6109b0565b5b8135610aed848260208601610a86565b91505092915050565b600060208284031215610b0c57610b0b6109a6565b5b600082013567ffffffffffffffff811115610b2a57610b296109ab565b5b610b3684828501610ac8565b91505092915050565b6000819050919050565b610b5281610b3f565b8114610b5d57600080fd5b50565b600081359050610b6f81610b49565b92915050565b600060208284031215610b8b57610b8a6109a6565b5b6000610b9984828501610b60565b91505092915050565b600073ffffffffffffffffffffffffffffffffffffffff82169050919050565b6000610bcd82610ba2565b9050919050565b610bdd81610bc2565b82525050565b600081519050919050565b600082825260208201905092915050565b60005b83811015610c1d578082015181840152602081019050610c02565b60008484015250505050565b6000610c3482610be3565b610c3e8185610bee565b9350610c4e818560208601610bff565b610c57816109ba565b840191505092915050565b610c6b81610b3f565b82525050565b6000606082019050610c866000830186610bd4565b8181036020830152610c988185610c29565b9050610ca76040830184610c62565b949350505050565b6000602082019050610cc46000830184610c62565b92915050565b600081519050919050565b600082825260208201905092915050565b6000819050602082019050919050565b610cff81610bc2565b82525050565b600082825260208201905092915050565b6000610d2182610be3565b610d2b8185610d05565b9350610d3b818560208601610bff565b610d44816109ba565b840191505092915050565b610d5881610b3f565b82525050565b6000606083016000830151610d766000860182610cf6565b5060208301518482036020860152610d8e8282610d16565b9150506040830151610da36040860182610d4f565b508091505092915050565b6000610dba8383610d5e565b905092915050565b6000602082019050919050565b6000610dda82610cca565b610de48185610cd5565b935083602082028501610df685610ce6565b8060005b85811015610e325784840389528151610e138582610dae565b9450610e1e83610dc2565b925060208a01995050600181019050610dfa565b50829750879550505050505092915050565b60006020820190508181036000830152610e5e8184610dcf565b905092915050565b610e6f81610bc2565b8114610e7a57600080fd5b50565b600081359050610e8c81610e66565b92915050565b600060208284031215610ea857610ea76109a6565b5b6000610eb684828501610e7d565b91505092915050565b7f4e487b7100000000000000000000000000000000000000000000000000000000600052602260045260246000fd5b60006002820490506001821680610f0657607f821691505b602082108103610f1957610f18610ebf565b5b50919050565b60008190508160005260206000209050919050565b60006020601f8301049050919050565b600082821b905092915050565b600060088302610f817fffffffffffffffffffffffffffffffffffffffffffffffffffffffffffffffff82610f44565b610f8b8683610f44565b95508019841693508086168417925050509392505050565b6000819050919050565b6000610fc8610fc3610fbe84610b3f565b610fa3565b610b3f565b9050919050565b6000819050919050565b610fe283610fad565b610ff6610fee82610fcf565b848454610f51565b825550505050565b600090565b61100b610ffe565b611016818484610fd9565b505050565b5b8181101561103a5761102f600082611003565b60018101905061101c565b5050565b601f82111561107f5761105081610f1f565b61105984610f34565b81016020851015611068578190505b61107c61107485610f34565b83018261101b565b50505b505050565b600082821c905092915050565b60006110a260001984600802611084565b1980831691505092915050565b60006110bb8383611091565b9150826002028217905092915050565b6110d482610be3565b67ffffffffffffffff8111156110ed576110ec6109cb565b5b6110f78254610eee565b61110282828561103e565b600060209050601f8311600181146111355760008415611123578287015190505b61112d85826110af565b865550611195565b601f19841661114386610f1f565b60005b8281101561116b57848901518255600182019150602085019450602081019050611146565b868310156111885784890151611184601f891682611091565b8355505b6001600288020188555050505b505050505050565b60006040820190506111b26000830185610c62565b81810360208301526111c48184610c29565b90509392505050565b7f4e487b7100000000000000000000000000000000000000000000000000000000600052601160045260246000fd5b600061120782610b3f565b91507fffffffffffffffffffffffffffffffffffffffffffffffffffffffffffffffff8203611239576112386111cd565b5b600182019050919050565b6000602082019050818103600083015261125e8184610c29565b905092915050565b600060408201905081810360008301526112808185610c29565b905081810360208301526112948184610c29565b90509392505050565b600060408201905081810360008301526112b78185610c29565b90506112c66020830184610bd4565b9392505050565b600060408201905081810360008301526112e78185610c29565b90506112f66020830184610c62565b939250505056fea26469706673582212209b28ae6aa88f6a251c105d6dbce584dfb398e41e16decdfa84e248e1b8ecb3c764736f6c6343000811003348656c6c6f20696d206120636f6e736f6c656c6f6720696e206120736d61727420636f6e74726163742077617665506f7274616c",
  "linkReferences": {},
  "deployedLinkReferences": {}
}