{
  "_format": "hh-sol-artifact-1",
  "contractName": "WavePortal",
  "sourceName": "contracts/WavePortal.sol",
  "abi": [
    {
      "inputs": [],
      "stateMutability": "nonpayable",
      "type": "constructor"
    },
    {
      "inputs": [
        {
          "internalType": "address",
          "name": "user",
          "type": "address"
        }
      ],
      "name": "getNumberOfWavesOfUser",
      "outputs": [
        {
          "internalType": "uint256",
          "name": "",
          "type": "uint256"
        }
      ],
      "stateMutability": "view",
      "type": "function"
    },
    {
      "inputs": [],
      "name": "getTotalWaves",
      "outputs": [
        {
          "internalType": "uint256",
          "name": "",
          "type": "uint256"
        }
      ],
      "stateMutability": "view",
      "type": "function"
    },
    {
      "inputs": [
        {
          "internalType": "address",
          "name": "",
          "type": "address"
        }
      ],
      "name": "numberOfWavesPerUser",
      "outputs": [
        {
          "internalType": "uint256",
          "name": "",
          "type": "uint256"
        }
      ],
      "stateMutability": "view",
      "type": "function"
    },
    {
      "inputs": [],
      "name": "totalWaves",
      "outputs": [
        {
          "internalType": "uint256",
          "name": "",
          "type": "uint256"
        }
      ],
      "stateMutability": "view",
      "type": "function"
    },
    {
      "inputs": [],
      "name": "wave",
      "outputs": [],
      "stateMutability": "nonpayable",
      "type": "function"
    }
  ],
  "bytecode": "0x608060405234801561001057600080fd5b5061003c6040518060600160405280603481526020016109356034913961004160201b6102df1760201c565b6101bb565b6100dd816040516024016100559190610199565b6040516020818303038152906040527f41304fac000000000000000000000000000000000000000000000000000000007bffffffffffffffffffffffffffffffffffffffffffffffffffffffff19166020820180517bffffffffffffffffffffffffffffffffffffffffffffffffffffffff83818316178352505050506100e060201b60201c565b50565b60008151905060006a636f6e736f6c652e6c6f679050602083016000808483855afa5050505050565b600081519050919050565b600082825260208201905092915050565b60005b83811015610143578082015181840152602081019050610128565b60008484015250505050565b6000601f19601f8301169050919050565b600061016b82610109565b6101758185610114565b9350610185818560208601610125565b61018e8161014f565b840191505092915050565b600060208201905081810360008301526101b38184610160565b905092915050565b61076b806101ca6000396000f3fe608060405234801561001057600080fd5b50600436106100575760003560e01c8063291bcab31461005c5780636fe15b441461007a5780638e24e1f5146100845780639a2cdc08146100b4578063ef36cd02146100d2575b600080fd5b610064610102565b60405161007191906104f2565b60405180910390f35b610082610108565b005b61009e60048036038101906100999190610570565b6101b5565b6040516100ab91906104f2565b60405180910390f35b6100bc6101cd565b6040516100c991906104f2565b60405180910390f35b6100ec60048036038101906100e79190610570565b610218565b6040516100f991906104f2565b60405180910390f35b60005481565b60008081548092919061011a906105cc565b9190505550600160003373ffffffffffffffffffffffffffffffffffffffff1673ffffffffffffffffffffffffffffffffffffffff168152602001908152602001600020600081548092919061016f906105cc565b91905055506101b36040518060400160405280600c81526020017f257320686173207761766564000000000000000000000000000000000000000081525033610378565b565b60016020528060005260406000206000915090505481565b60006102106040518060400160405280601681526020017f5765206861766520256420746f74616c20776176657300000000000000000000815250600054610414565b600054905090565b60006102986040518060400160405280601c81526020017f5468697320757365722068617320256420746f74616c20776176657300000000815250600160008573ffffffffffffffffffffffffffffffffffffffff1673ffffffffffffffffffffffffffffffffffffffff16815260200190815260200160002054610414565b600160008373ffffffffffffffffffffffffffffffffffffffff1673ffffffffffffffffffffffffffffffffffffffff168152602001908152602001600020549050919050565b610375816040516024016102f391906106a4565b6040516020818303038152906040527f41304fac000000000000000000000000000000000000000000000000000000007bffffffffffffffffffffffffffffffffffffffffffffffffffffffff19166020820180517bffffffffffffffffffffffffffffffffffffffffffffffffffffffff83818316178352505050506104b0565b50565b610410828260405160240161038e9291906106d5565b6040516020818303038152906040527f319af333000000000000000000000000000000000000000000000000000000007bffffffffffffffffffffffffffffffffffffffffffffffffffffffff19166020820180517bffffffffffffffffffffffffffffffffffffffffffffffffffffffff83818316178352505050506104b0565b5050565b6104ac828260405160240161042a929190610705565b6040516020818303038152906040527fb60e72cc000000000000000000000000000000000000000000000000000000007bffffffffffffffffffffffffffffffffffffffffffffffffffffffff19166020820180517bffffffffffffffffffffffffffffffffffffffffffffffffffffffff83818316178352505050506104b0565b5050565b60008151905060006a636f6e736f6c652e6c6f679050602083016000808483855afa5050505050565b6000819050919050565b6104ec816104d9565b82525050565b600060208201905061050760008301846104e3565b92915050565b600080fd5b600073ffffffffffffffffffffffffffffffffffffffff82169050919050565b600061053d82610512565b9050919050565b61054d81610532565b811461055857600080fd5b50565b60008135905061056a81610544565b92915050565b6000602082840312156105865761058561050d565b5b60006105948482850161055b565b91505092915050565b7f4e487b7100000000000000000000000000000000000000000000000000000000600052601160045260246000fd5b60006105d7826104d9565b91507fffffffffffffffffffffffffffffffffffffffffffffffffffffffffffffffff82036106095761060861059d565b5b600182019050919050565b600081519050919050565b600082825260208201905092915050565b60005b8381101561064e578082015181840152602081019050610633565b60008484015250505050565b6000601f19601f8301169050919050565b600061067682610614565b610680818561061f565b9350610690818560208601610630565b6106998161065a565b840191505092915050565b600060208201905081810360008301526106be818461066b565b905092915050565b6106cf81610532565b82525050565b600060408201905081810360008301526106ef818561066b565b90506106fe60208301846106c6565b9392505050565b6000604082019050818103600083015261071f818561066b565b905061072e60208301846104e3565b939250505056fea2646970667358221220fafb3b8b6df6903afad41c32c281c83173a511eed79bb1ad41aa597edf8f916764736f6c6343000811003348656c6c6f20696d206120636f6e736f6c656c6f6720696e206120736d61727420636f6e74726163742077617665506f7274616c",
  "linkReferences": {},
  "deployedLinkReferences": {}
}